:02000002B0004C
:1040000000400B0000AF0B00000006000C00050292
:084010000401E50C00000000B2
:04401800849F0B0076
:10401C0009480A49884208B505D0094A824202D0AB
:10402C00121A05F01FFE0748074A0021121A05F064
:10403C0041FE014808BD00BF74E2032068AE0B00CE
:10404C00E4E20320E4E20320EDE7032070B5074E21
:10405C00074C05F06BFBA41BA4080025AC4200D157
:10406C0070BD56F8043B98470135F7E71CAE0B00C2
:10407C0040AE0B0000F0BEBE08B500F095FDBDE8EB
:10408C00084005F00BBB01F001BF01F0FFBE01F0D1
:10409C0005BF000008B5034A03490C2001F052FE8D
:1040AC00FEE700BF71590B00989F0B000078B0FA27
:1040BC0080F040097047012303707047704700007F
:1040CC002DE9FF41DFF840800E4F04464518AC4205
:1040DC0015D014F8011B0A22684604F0EEFD414687
:1040EC00684604F042FE0646684604F033FD002E96
:1040FC00EDD005F011FA394604F0CDFBE7E704B03A
:10410C00BDE8F081B09F0B00AD9F0B0010B51021E6
:10411C000446FFF7BCFF204610BD0EB403B503AB3D
:10412C00002153F8042B019304F0DDFB02B05DF881
:10413C0004EB03B07047000073B5044608462279BF
:10414C00A36832B1A3B90B4902B0BDE8704004F0CA
:10415C008FBB094A267B094D0949647B012E18BF88
:10416C002946CDE900140749FFF7D7FF02B070BD0F
:10417C00054AEFE7CC9F0B00CDA00B00C89F0B00AE
:10418C00C49F0B00E29F0B00BB9F0B0010B5436854
:10419C00013B0446436063B903689B689847A36876
:1041AC00013BA3602BB923682046DB68BDE81040B7
:1041BC00184710BD08B501F0DDFB034B1860BDE8D6
:1041CC00084001F0F3BD00BF28E7032003682BB1C2
:1041DC004268934202D2184605F02CBD002070476D
:1041EC0038B50568044645B143689D4205D228465A
:1041FC0005F0A8FD013005442560204638BDF8B512
:10420C00044647680D4621B903687A1C4260D955AB
:10421C00F8BD084605F096FDA368461CF2199A42B3
:10422C00F6D8206832462946384405F01BFD6068F4
:10423C0030446060ECE7000038B504460B46D0E92A
:10424C0001012568044A091A284401F037FE636805
:10425C0001300344636038BDFF9F0B0038B5044642
:10426C000B46D0E901012568044A091A284401F0DB
:10427C0025FE636801300344636038BD02A00B0067
:10428C0008B5086805F0D6FC01280A4B05D10022B8
:10429C001A70094B00221A700AE020B901221A7018
:1042AC00054B0122F7E71B78002BF2D0012BF7D03E
:1042BC0008BD00BF75E2032074E2032008B501219C
:1042CC00052005F0B4FA41F64C5001F027FEBDE88C
:1042DC0008400021052005F0AABA000070B51E4C5C
:1042EC00204601F02AFA10B14FF0FF3070BD0121C9
:1042FC00204601F040FA0028F6D1204601F05CFA85
:10430C0005460028F0D105F007F9144904F0B0FA7D
:10431C0005F002F90A22218804F0C7FA05F0FCF82E
:10432C000F4904F0A5FA05F0F7F80A226188064651
:10433C0004F0BBFA304604F0A2FA0121052005F086
:10434C0076FA41F64C5001F0E9FD0520294605F0BE
:10435C006EFA2088CAE700BFB0E30320AEA00B00C2
:10436C00B9A00B0008B500234377006804F0B4FF34
:10437C00BDE8084001F056BA2DE9F0438F188FB014
:10438C00B942CDE9051706468946904680F0C280B1
:10439C0005A80D88FFF724FF0368BB4280F0BA80A4
:1043AC0005980378412B49D1013005F043FC0528D1
:1043BC0037DDFF2447F276239D4200F0D38041D8AD
:1043CC0047F261239D4200F0A88047F264239D428E
:1043DC006BD046F670539D4241D1784D784EDFF844
:1043EC00F4810598B84280F095800378412B4BD12D
:1043FC00013005F01FFC052839DDFF2405A8FFF767
:10440C00EFFEDDF814902946484605F089FC01467C
:10441C0000283DD1204605F0F9F905A8FFF7E0FE8C
:10442C00DFE70598013005F005FC0028C1DB059895
:10443C00013005F0FFFB0E30C4B2BBE705A8FFF757
:10444C00C5FEF9E747F264739D424FD047F276738D
:10445C009D4200F0978047F261739D426FD000231C
:10446C00CDE9013302220092728B19463AE005988D
:10447C00013005F0DFFB0028BFDB0598013005F0AB
:10448C00D9FB0E30C4B2B9E705A8FFF79FFEF9E7D8
:10449C003146484605F044FC28B14146484605F0F3
:1044AC003FFC0028B9D10121B4E70AAB4549079379
:1044BC0007A810230025CDE90853FFF7A0FE07A895
:1044CC002146FFF7B9FE204605F0CAF9014607A8B8
:1044DC00FFF7C4FE089BCDE90155013B0093079BF8
:1044EC002A461421304600F083FA13E005A8FFF7A2
:1044FC0077FE03689F420DD9A4B20121204605F036
:10450C0085F905A8FFF762FE011E18BF01212046A0
:10451C0005F08DF90FB0BDE8F0830AAB079307A83F
:10452C00102329490025CDE90853FFF768FE07A899
:10453C002146FFF781FE204605F0A5F9C6E705A840
:10454C00FFF74EFE03689F42E4D9A4B20121204636
:10455C0005F05CF905A8FFF739FE0146204605F089
:10456C00A9F9D7E720468DF8284001F05DF90346FC
:10457C000AA823B1154A934201D09847CAE701F023
:10458C004FF9C7E705A8FFF72BFE059B8DF81C40DC
:10459C00A3EB0901A8EB01012046CDE90A310C91EE
:1045AC0001F04CF903460AA907A823B1084A934223
:1045BC0001D09847AEE701F034F9ABE7E3A00B006C
:1045CC00E6A00B00EEA00B00F1A00B002D580B0089
:1045DC002F580B00EAA00B002DE9F0418CB004AF72
:1045EC00044605220068391D04F09FFA98B305288B
:1045FC0004D000202037BD46BDE8F081B7F8053067
:10460C005BBA9AB2A7F80530B7F807305BBA1FFA55
:10461C0083F8A7F80730002AEBD03B7923BB01F0D5
:10462C00FDF80246E060607FB7F80730C0B9B7F814
:10463C000510012914D1092B0FD0C82B01D0042B44
:10464C00D8D1012562612046657700F07FFAFFF72B
:10465C00B1FD01F0E7F80120CCE703236377C9E74C
:10466C00581F18BF0120C5E7B8F5806F03D9204645
:10467C00FFF778FEEFE708F108036E46DB08A6EBC0
:10468C00C3039D4604AD20684246294604F04DFA0A
:10469C0080454FF000007FD1B7F80730E85401F0A7
:1046AC00BDF83B79E060142B00F0A68048D80F2BA6
:1046BC0000F0A28007D8022B48D0062B51D0204600
:1046CC00FFF750FE58E0112BF9D100233B70B7F8DF
:1046DC0007302B449D42C7E903534DD207F10C0020
:1046EC00D5F80080FFF77CFDFB68B7F807105D1B61
:1046FC004D1BC7E905357B68FD61C3F30F2363834D
:10470C00644B984500F0BF8000F28C80A3F57F23AA
:10471C006FF400721344984500F09D8079D8A3F58E
:10472C000033063B984500F09C8003F500330333BF
:10473C0098456BD107F11401384601F072F865E029
:10474C00292B1BD0372B17D01D2BB8D1637F43B926
:10475C0001236377204600F0F9F9FFF72BFD01F0F8
:10476C0061F80023C821B7F805200091CDE9013389
:10477C001946204600F03CF901200DE0A3681BB956
:10478C00402001F083FBA060B7F80780A8444545A2
:10479C00C7E9055802D30020B5462BE7294640222D
:1047AC00A06805F0D7FAA368002583F83F5007F1FD
:1047BC001400FFF715FD036898451BD9786920B1E3
:1047CC00BB69984214D205F039FA85B2206804F01E
:1047DC0083FD2368A2685A631D870023637701F069
:1047EC001DF8A0F59C500838C4E903006061C3E7CC
:1047FC002846EAE75025E9E77B68B7F80720C3F3BA
:10480C000F23638329462046FFF7B6FD00236383FD
:10481C00B2E7214B9845F9D107F11401384601F064
:10482C0000F8F3E71D4B984521D003F19F6303F586
:10483C00003303F5807398451FD003F16E4303F5E5
:10484C00302303F586739845E0D107F114013846FF
:10485C0000F0E7FFDAE707F11401384600F0E1FF5A
:10486C00D4E707F11401384600F0DBFFCEE707F17F
:10487C001401384600F0D5FFC8E707F1140138469B
:10488C0000F0CFFFC2E707F11401384600F0C9FF72
:10489C00BCE700BF766673006462670061636F6E8D
:1048AC002DE9F04104468CB00D46FFF783FC637F85
:1048BC00022B1ED0237F628B0133DBB22377AAB984
:1048CC00022B13D8206804F0CFFBA8B125B92068BF
:1048DC0004F0A8FC00280FDD2046FFF77DFE002821
:1048EC00F5D1206804F0F8FC00F09CFF237F013B1D
:1048FC0023770CB0BDE8F08100F090FF05462068EE
:10490C0004F0B2FB677F012F064624D120B9656104
:10491C002046FFF727FDE9E7E3684FF21862EB1A30
:10492C009342F5D84AF6C872934203D82369EB1A1E
:10493C009342DBD9636941F27072EB1A9342D5D979
:10494C000023CDE9013300931A460621204600F0DE
:10495C004FF86561CAE7002FC8D16369EB1A40B103
:10496C0041F270729342C1D9206804F0B5FC6777AC
:10497C00BCE741F288329342B8D9206804F0ACFC11
:10498C00D4F800C0DCF834E0BCF83880BEF1000F7D
:10499C001BD0334642467146604604F0E7FA0128C4
:1049AC00D7D16368059301251846258305F0CAF90C
:1049BC000022CDE90122059B00902A461D212046AC
:1049CC0000F016F82369636190E7084B06930CF12D
:1049DC0020070FCF07AE0FC63B68337042467346B5
:1049EC0006A9604604F0A2FBD9E700BF28AA0B0079
:1049FC002DE9F04F83B000AF044600683D6B88464C
:104A0C0016469946EB4604F02FFB00287FD0B8F1F0
:104A1C001D0F04D84C4B23FA08F3DB0702D4637F39
:104A2C00012B74D146B9668B36B9238B01339BB2FB
:104A3C00002B71D02383268BA8F10C03082B16D8DE
:104A4C00D4E90323934238BF134603F1420A00F022
:104A5C00E5FEAAEB0000002860DB00212046FFF7F2
:104A6C001FFF00F0DBFEAAEB00000028F5DAB9F11D
:104A7C00000F5AD06B1D7A6B002ABA6B08BF00224C
:104A8C0003EB020A0AF1070323F00703ADEB030D56
:104A9C00BB6BC7F804D0EA18C2F3072376BA43EA13
:104AAC0002238DF80080ADF80160ADF80330B9F148
:104ABC00000F3CD0002D3AD02A4649460DF1050096
:104ACC0005F0D0F8681D7B6B3BB1BB6B2BB11A4664
:104ADC007B68796B184405F0C5F8002555452AD23A
:104AEC00AAEB05027B682068B2F5806F28BF4FF4F3
:104AFC008062591904F06BF90646002000F08CFE18
:104B0C00BEB9206804F0E8FB667700F08BFE0C372A
:104B1C00DD46BD46BDE8F08F01238BE7217F0029E0
:104B2C00A5D12046FFF7BCFEA1E70523A3E705208E
:104B3C00C9E73544D2E703D02046FFF713FCE6E77C
:104B4C0000F06CFE2061E2E74500002000B595B056
:104B5C0004AB002201934F2300930292034B1121CB
:104B6C00FFF746FF15B05DF804FB00BF80A20B00F9
:104B7C0030B5ADF2244D08AB00240546059305A8CD
:104B8C004FF48063CDE90643FFF739FB069B013BED
:104B9C000093CDE90144059B22460E212846FFF7E0
:104BAC0027FF0DF2244D30BD2DE9F0437D488BB02D
:104BBC0000F0D4FB002104467B48FFF771FE7B4BD1
:104BCC001B78002B00F0E480FFF788FB042C784D59
:104BDC0003D92B780BB9FFF771FB764C764F00F0AD
:104BEC00C9FE00F0C7FE2368C01A63281BD900F069
:104BFC00C1FE05A92060714800F0F0FAA8B3BDF918
:104C0C0014303B6004F088FC3C68002C06462ADA21
:104C1C002D2103F031FE61420A22304603F045FE9D
:104C2C00304603F02CFE3B6842F6E06203F5FA5383
:104C3C00934220D92B78F3B10121072004F0F7FD22
:104C4C005F495948FFF794FF01F008FE01F096FE0A
:104C5C000446A8B1FF21002208462A700BB0BDE81B
:104C6C00F04303F081BE2146D6E704F055FC5549CC
:104C7C0003F011FED7E70021072004F0D8FDE3E78D
:104C8C0001232B70024601464F4DFF2003F06CFEB2
:104C9C0000F070FE2B68C01AB0F5FA6F46D300F026
:104CAC0069FE286001F0DAFD4849142201F0B0FEDB
:104CBC00054600283AD0454FDFF8349104EBC40682
:104CCC00B60006F1080805A8B84401F091FA0122D3
:104CDC0005A9404602F01AFD20B3494605A801F08B
:104CEC00E2FAF8B104F018FC4146044601A801F0C0
:104CFC0019FC374901A804F038F80A22014620466D
:104D0C0003F0D3FD0546204603F0B9FD441901A874
:104D1C0003F020FF2F4D64B904F0FEFB2E4903F085
:104D2C00BAFD25E00134E4B2A542C7D80BB0BDE80A
:104D3C00F08304F0F1FB294903F0ADFD01F08EFD89
:104D4C0001230146BA1901A803F018F9019B029C32
:104D5C002B606B689C4208D014B1636801336360AC
:104D6C00686808B1FFF712FA6C6001A801F0C7FE81
:104D7C00184801F0E5FC0028D8D0194A1949154803
:104D8C0002F090FD184A1949124802F08BFDCDE74C
:104D9C00042C01D9FFF792FA0A200BB0BDE8F043BE
:104DAC0001F0BCB8E4E30320F0E2032074E203203A
:104DBC0076E20320C4E30320B8E6032088E3032053
:104DCC00FEA00B00F4A00B00C8E30320E8E30320D3
:104DDC002BA10B00CCE3032040A10B0032A10B0054
:104DEC0074E30320DCE3032060E30320D4E303201B
:104DFC0010E303202DE9F041012194B0052004F0CB
:104E0C0005FD0121072004F001FDA223AC22A721FE
:104E1C00009302A8EA2303F02DFC03AC40F6B83053
:104E2C0000F0FAFC0FCC09AF0FC7434D23683B7061
:104E3C00424B6B6000F0F2FCA0F59C5008380DF171
:104E4C00240CC5E903006861BCE80F000FAE0FC667
:104E5C002C683B6833704FF0000841F69073C4F82F
:104E6C00348023870FAF0FCF20340FC433682370E7
:104E7C0044F24F66286804F02FFA85F81D8000F084
:104E8C00CDFC04466B7F012B0CD000F0C7FC001B43
:104E9C00B04204D800212846FFF702FDF2E76B7FF1
:104EAC00012BE7D104F038FB4FF4165104F028FB2A
:104EBC004FF46141224800F065FB01F0CFFC01F09A
:104ECC0017FD012003F040FD1D4800F008FC28B33D
:104EDC0004F022FB1B4903F0DEFC04F01DFB1A4915
:104EEC0003F0D9FC04F024FD03F008FB0EA800F03D
:104EFC002FF950210EA800F038F90EA9134800F034
:104F0C0097F904F015FD0146114800F008FB58B95B
:104F1C0004F002FB0F4903F0BEFCFEE704F0FCFAC0
:104F2C000D4903F0B8FCFEE70C4A0D49104602F09F
:104F3C00E3FC14B0BDE8F081F0E2032051A10B00BA
:104F4C00B0E3032072A10B008CA10B0088E30320BB
:104F5C00E4E30320CBA10B00A8A10B00DCE30320AE
:104F6C00CD400B0070B5364C204604F0FFF904F12F
:104F7C001C0003F03BFB334A0023C2E9004363638C
:104F8C002387C2E90233C2E904339361938304F0AB
:104F9C000FFD01462C482D4C00F0ECFA2C4800F08B
:104FAC00A3F92C492C4801F0FDF92C492C4801F0AF
:104FBC00F9F92C492C4801F0F5F914257F262046E7
:104FCC0001F00BF904F1080002F0B3F804F114003D
:104FDC0002F0AFF8013D84F8206004F12404EED116
:104FEC002248234C234E01F00DFB234801F00AFB11
:104FFC00224801F083FB0821204600F0C1F8204B29
:10500C0023603378BFF35B8FDB070AD43046FFF79E
:10501C004DF830B11B48294603F0C6FC3046FFF76B
:10502C004AF8184BE360032323610023237523778D
:10503C00154B164A23620123A261A38470BD00BFE5
:10504C0024E30320F0E20320B0E30320E8E3032091
:10505C00E4E30320F2A10B0010E3032017A20B00E2
:10506C0060E303203CA20B0074E30320DCE3032089
:10507C0088E30320E4E20320D4E30320CCE3032001
:10508C0008A30B00E8E20320809698006CA20B00AA
:10509C00704710B528210446FEF7F9FF204610BDD5
:1050AC0010B5044600F11801C06803F0B5FC208A65
:1050BC000021BDE8104004F0BABB10B50446012134
:1050CC00008A04F0B4FBE068BDE8104003F08ABC31
:1050DC00F8B51E4603685B690F46144605469847AB
:1050EC00012E88BF47F04007E86847F0800103F0C5
:1050FC0001FD2644B44206D0E868002103F0FAFC16
:10510C0004F8010BF6E72B6828469B6998470120A9
:10511C00F8BDF8B51E4603685B690F461446054694
:10512C009847012E88BF47F04007E868394603F0DE
:10513C00E1FC2644B44205D014F8011BE86803F0E6
:10514C00D9FCF7E72B6828469B6998470120F8BDE6
:10515C000022027042708270C270027142718271C0
:10516C00C2710272427282727047002241F00701D2
:10517C000170027182704270C271427270470000FD
:10518C00024AC0E90021002202727047ECA20B0017
:10519C0013B5036801AADC680123A0479DF804003D
:1051AC0002B010BD38B505460A240F212846FFF77A
:1051BC00EFFF33284FF0010004D000F0AFFE013CAC
:1051CC00F3D1204638BD10B50446018AC06803F0FF
:1051DC00F5FB2046BDE81040FFF7E4BFF7B50C46E1
:1051EC0027210546FFF7D4FF00F00800002814BF64
:1051FC00012600260FD02B686A46DF68282106237B
:10520C002846B847BDF800302380BDF802306380D3
:10521C00BDF80430A380304603B0F0BD13B503686D
:10522C008DF804201C6901AA0123A04702B010BD0F
:10523C0070B503689B6804460D469847064630B91E
:10524C0004F06AF9274903F026FB304670BD2A7832
:10525C0020212046FFF7E2FF6A7821212046FFF744
:10526C00DDFFAA7822212046FFF7D8FFEA78232118
:10527C002046FFF7D3FF2A7924212046FFF7CEFFE3
:10528C006A7925212046FFF7C9FFAB791BB126218E
:10529C002046FFF77DFFAA7A2E212046FFF7BEFF9E
:1052AC00AB785B06D1D5EA7932212046FFF7B6FF01
:1052BC002A7A33212046FFF7B1FF6368002B0ADB03
:1052CC006A7A227220463021FFF7A8FF312120464E
:1052DC00FFF75EFFB9E70022227230212046FFF76C
:1052EC009DFFB2E7D1A20B00704710B504466021B8
:1052FC00006803F035F9206803F03AF9B0FA80F051
:10530C00400910BD38B505460C460068602103F015
:10531C0027F92868036821469B689847286800216C
:10532C0003F022F908B1002038BD28680222602160
:10533C0003F013F9286803681B6998470028F2D01A
:10534C00286803685B6998470446286803685B69AA
:10535C009847E4B244EA002080B2E5E70821FFF761
:10536C00D1BF0C21FFF7CEBF70B504460E460068C6
:10537C006021154603F0F4F82068036831469B68F9
:10538C00984720680368E9B29B68984720680368CF
:10539C00290A9B689847206803F0EAF8B0FA80F075
:1053AC00400970BD70B504460D461646FFF7AAFFBE
:1053BC0000F47F4040EA060229462046BDE87040D2
:1053CC00FFF7D2BF70B504460D461646FFF79AFF9D
:1053DC00C0B240EA062229462046BDE87040FFF7DD
:1053EC00C3BF08B5FFF78EFFC0F3072008BD2DE93A
:1053FC00F04104469DF818700D46984616466AB161
:10540C00FFF780FFC0B200EA080343EA070229460F
:10541C00204636B1BDE8F041FFF7C4BFFFF7E1FF0E
:10542C00F1E7BDE8F041FFF7CDBFB1F5A07F07B5BF
:10543C000ED29F290ED84F298CBF402300230093F6
:10544C0001223F230321FFF7D2FF03B05DF804FBD9
:10545C00C023F4E78023F2E7072907B50FD8032907
:10546C000FD810D002290CBF042300230093012273
:10547C00F1230321FFF7BBFF03B05DF804FB0E2300
:10548C00F4E70C23F2E70823F0E707B500230093B9
:10549C000122FE230321FFF7AAFF03B05DF804FBF2
:1054AC0007B50F298CBF0823002300930022F72394
:1054BC000321FFF79CFF03B05DF804FB07B5022343
:1054CC0000930122EF230421FFF791FF03B05DF855
:1054DC0004FBC72907B516D8B32916D89F2916D8A7
:1054EC008B2916D8772916D8632916D84A2994BF40
:1054FC00002101210091F82300220421FFF777FFFE
:10550C0003B05DF804FB0721F4E70621F2E705215F
:10551C00F0E70421EEE70321ECE70221EAE738B5D6
:10552C0004460846216002F0E9FF2046FFF7DDFE45
:10553C00054610B90025284638BD2046FFF711FF57
:10554C00B0F5C37FF6D12046C821FFF7C2FF204635
:10555C002821FFF76AFF20460821FFF77DFF102165
:10556C002046FFF79DFF2046FFF7A8FF2046FFF7D8
:10557C008CFFE0E74FF0000C4FF0FF32C0E902C2A5
:10558C0001617047006903F065BF2DE9F0470446DF
:10559C000069089F984603680E469B68EF211546E4
:1055AC0098472069036801219B6898472069036824
:1055BC00310E9B68984720690368C6F307419B68C6
:1055CC00984720690368C6F307219B6898472069B0
:1055DC000368F1B29B6898472069036829469B6869
:1055EC009847206903684FEA182631469B6898470C
:1055FC00206903685FFA88F99B68494698474E44CE
:10560C003544A8F102080026206906F10109036857
:10561C00F6B246459B6806DAB95D9847BA5D154403
:10562C00ADB24E46F0E7290A984720690368E9B203
:10563C009B68BDE8F04718472DE9F041002486B07F
:10564C0006460D461746A046306903681B69984705
:10565C0040B901340120A4B200F060FCBC42F3D389
:10566C00FF2037E0306903685B69984706AB434419
:10567C0003F8140CB8F1000F03D19DF80430EF2B94
:10568C00E2D108F101085FFA88F8B8F1080FDBD90C
:10569C009DF80430EF2B20D19DF80530012B1CD147
:1056AC00BDF80B305BBA023B9BB203F10A0290458A
:1056BC00CADD9DF80A202A700021CAB2934201F17A
:1056CC00010106DD06ACA818224412F80B2C42701E
:1056DC00F3E7D8B206B0BDE8F081FE20FAE730B5AA
:1056EC0085B013238DF8083083688DF80C301A0EB2
:1056FC008DF8092002AD1A0C8DF80A2000951A0AB3
:10570C00C1688DF80B20044607230122FFF73DFFEB
:10571C0041F2883229462046FFF78EFF01280AD134
:10572C009DF80830072B06D19DF80900B0FA80F0DF
:10573C00400905B030BD0020FBE730B585B003ADA6
:10574C000095C1680122044603238DF80C20FFF755
:10575C001CFF41F2883229462046FFF76DFF0128D5
:10576C0003D09DF80C30072B03D19DF80D0005B02C
:10577C0030BDFF20FBE730B585B003AD02230095AB
:10578C0004468DF80C308DF80D100423C1680122ED
:10579C00FFF7FBFE41F2883229462046FFF74CFF0B
:1057AC00012803D09DF80C30072B03D19DF80D0078
:1057BC0005B030BDFF20FBE730B54FF0FF33036081
:1057CC00144B85B0044602AD18689B88E1680290C2
:1057DC00ADF80C300122082320460095FFF7D5FECA
:1057EC0041F2883229462046FFF726FF012803D0D4
:1057FC009DF80830072B0BD1BDF80A309DF8090035
:10580C005BBA2380BDF80C305BBA638005B030BD49
:10581C00FF20FBE724A30B0000F080BB00F0AAB82C
:10582C00704770477047000003065ABF024B53F88D
:10583C0020000020704700BF2CA30B0003065ABFAA
:10584C00024B53F820000020704700BF2CA50B0022
:10585C0010B58368044613B10322014698472046CD
:10586C0010BD000008B5024B1B689B68019308BD76
:10587C007802030008B5024B1B68DB6F019308BD6F
:10588C007802030008B5034B1B68D3F884300193EE
:10589C0008BD00007802030008B5034B1B68D3F861
:1058AC009830019308BD00007802030008B5034B43
:1058BC001B68D3F8BC30019308BD000078020300CC
:1058CC0008B5034B1B68D3F8C430019308BD000026
:1058DC007802030008B5034B1B68D3F8E030019342
:1058EC0008BD00007802030008B5034B1B68D3F811
:1058FC00E430019308BD00007802030008B5034BA7
:10590C001B68D3F8F030019308BD00007802030047
:10591C0008B5034B1B68D3F8F430019308BD0000A5
:10592C007802030008B5024B1B685B6C019308BD41
:10593C004802030008B5024B1B68DB6C019308BDE1
:10594C004802030008B5024B1B685B6D019308BD50
:10595C004802030008B5024B1B685B68019308BD45
:10596C001802030008B5024B1B68DB68019308BDE5
:10597C001802030008B5024B1B685B69019308BD54
:10598C001802030008B5024B1B685B68019308BD45
:10599C002C02030008B5024B1B689B68019308BDE1
:1059AC002C02030008B5024B1B68DB68019308BD91
:1059BC002C02030008B5024B1B681B69019308BD40
:1059CC002C02030008B5024B1B685B69019308BDF0
:1059DC002C02030008B5024B1B689B6A019308BD9F
:1059EC002C02030008B5024B1B681B6B019308BD0E
:1059FC002C02030008B5024B1B689B6F019308BD7A
:105A0C002C02030008B5024B1B68DB68019308BD30
:105A1C002802030008B5024B1B689B69019308BD63
:105A2C002802030008B5024B1B68DB69019308BD13
:105A3C002802030008B5024B1B681B6A019308BDC2
:105A4C002802030008B5024B1B685B6A019308BD72
:105A5C002802030008B5024B1B689B6A019308BD22
:105A6C002802030008B5024B1B68DB6A019308BDD2
:105A7C002802030008B5024B1B681B6B019308BD81
:105A8C002802030008B5024B1B685B6B019308BD31
:105A9C002802030008B5024B1B681B6C019308BD60
:105AAC002802030008B5024B1B681B6D019308BD4F
:105ABC002802030008B5024B1B685B69019308BD03
:105ACC006C02030008B5024B1B685B69019308BDAF
:105ADC006402030008B5024B1B681B6A019308BDE6
:105AEC006402030008B5024B1B689B6A019308BD56
:105AFC006402030008B5024B1B689B68019308BD48
:105B0C006802030008B5024B1B68DB68019308BDF3
:105B1C006802030008B5024B1B689B69019308BD22
:105B2C003802030008B5024B1B68DB69019308BD02
:105B3C003802030008B5024B1B681B6A019308BDB1
:105B4C003802030008B5024B1B689B6A019308BD21
:105B5C003802030008B5024B1B681B6B019308BD90
:105B6C003802030008B5024B1B689B6B019308BD00
:105B7C003802030008B5024B1B681B68019308BD73
:105B8C003002030008B5024B1B685B69019308BD2A
:105B9C003002030008B5024B1B68DB69019308BD9A
:105BAC003002030008B5024B1B681B6A019308BD49
:105BBC003002030008B5024B1B685B6A019308BDF9
:105BCC003002030008B5024B1B68DB6B019308BD68
:105BDC003002030008B5024B1B681B6C019308BD17
:105BEC003002030008B5024B1B685B6C019308BDC7
:105BFC003002030008B5024B1B68DB68019308BD3B
:105C0C003C02030008B5024B1B681B69019308BDDD
:105C1C003C02030008B5024B1B685B69019308BD8D
:105C2C003C02030008B5024B1B689B69019308BD3D
:105C3C003C02030008B5024B1B68DB69019308BDED
:105C4C003C02030008B5024B1B681B6A019308BD9C
:105C5C003C02030008B5024B1B689B6A019308BD0C
:105C6C003C02030008B5024B1B68DB6A019308BDBC
:105C7C003C02030008B5024B1B681B6C019308BD6A
:105C8C003C02030008B5024B1B681B68019308BD5E
:105C9C004C02030008B5024B1B685B68019308BDFE
:105CAC004C02030008B5024B1B681B69019308BD2D
:105CBC004C02030008B5024B1B685B69019308BDDD
:105CCC004C02030008B5024B1B689B69019308BD8D
:105CDC004C02030008B5024B1B68DB69019308BD3D
:105CEC004C02030008B5024B1B681B6A019308BDEC
:105CFC004C02030008B5024B1B685B68019308BD9E
:105D0C006002030008B5024B1B689B68019308BD39
:105D1C006002030008B5024B1B68DB68019308BDE9
:105D2C006002030008B5024B1B689B69019308BD18
:105D3C006002030008B5024B1B68DB69019308BDC8
:105D4C006002030008B5024B1B685B6B019308BD36
:105D5C006002030008B5024B1B681B6D019308BD64
:105D6C006002030008B5024B1B685B68019308BD19
:105D7C002002030008B5024B1B685B69019308BD48
:105D8C002002030008B5034B1B68D3F8883001933D
:105D9C0008BD00002002030008B5034B1B68D3F8B4
:105DAC009430019308BD00002002030008B5024B9B
:105DBC001B689B68019308BD4402030008B5024BA5
:105DCC001B68DB6B019308BD4402030008B5024B52
:105DDC001B685B68019308BD4002030008B5024BC9
:105DEC001B689B68019308BD4002030008B5024B79
:105DFC001B68DB68019308BD4002030008B5024B29
:105E0C001B681B69019308BD4002030008B5024BD7
:105E1C001B685B69019308BD4002030008B5024B87
:105E2C001B689B69019308BD4002030008B5024B37
:105E3C001B68DB69019308BD4002030008B5024BE7
:105E4C001B681B6A019308BD4002030008B5024B96
:105E5C001B681B6B019308BD4002030008B5024B85
:105E6C001B685B6B019308BD4002030008B5024B35
:105E7C001B681B6C019308BD4002030008B5024B64
:105E8C001B685B6C019308BD4002030008B5024B14
:105E9C001B681B68019308BD1C02030008B5024B6C
:105EAC001B685B68019308BD1C02030008B5024B1C
:105EBC001B689B68019308BD1C02030008B5024BCC
:105ECC001B68DB69019308BD1C02030008B5024B7B
:105EDC001B685B6A019308BD1C02030008B5024BEA
:105EEC001B68DB6A019308BD1C02030008B5024B5A
:105EFC001B68DB6B019308BD1C02030008B5024B49
:105F0C001B681B6C019308BD1C02030008B5024BF7
:105F1C001B685B6C019308BD1C0203000021FFF79A
:105F2C0029BF70477047704770470000064B994275
:105F3C0010B500F10C0405D0084603F063FD0028F1
:105F4C0008BF0024204610BD9CA90B00064B9942AB
:105F5C0010B500F10C0405D0084603F053FD0028E1
:105F6C0008BF0024204610BD9CA90B00064B99428B
:105F7C0010B500F10C0405D0084603F043FD0028D1
:105F8C0008BF0024204610BD9CA90B0010B5682149
:105F9C000446FEF77CF8204610BD10B528210446B7
:105FAC00FEF775F8204610BD10B530210446FEF7FB
:105FBC006EF8204610BD6821FEF769B82821FEF75F
:105FCC0066B83021FEF763B8F0B50025EC1C8C42A6
:105FDC000DD86E1C445D875D974205D12644B142B5
:105FEC0005D31D60601CF0BD01342544EEE7002094
:105FFC00F9E70000024A03490A20FFF7A3BE00BFDD
:10600C0071590B002CA70B0030B40D4611461A46E3
:10601C00036809682868D3E90043A44630BC60478C
:10602C00012A38B5044602D10B68236003E0022A2A
:10603C0003D0032A0DD0002038BD08200D68FEF7D0
:10604C0022F803460028F0D095E8030083E803000B
:10605C00EBE700680028EED00821FEF718F8EAE715
:10606C0010B5836804462BB10322014698470023E0
:10607C00C4E9023310BD10B5836804462BB103226A
:10608C00014698470023C4E9023310BD10B5002324
:10609C008AB02022CDE902230446084A009208491E
:1060AC0002AA0120FFF756FE20680649008800234B
:1060BC0022460AB0BDE81040FFF7F8BB4EA70B0014
:1060CC0043A70B00AD7A0B0010B5013802EB410170
:1060DC0010F8013F1B0903F13004392C88BF03F180
:1060EC00370402F8024B037803F00F0303F130047A
:1060FC00392C88BF03F13704914202F8014CE7D1E7
:10610C0010BD10B504465830FFF7A2FB04F148004F
:10611C00BDE8104002F01EBD38B503688B42054641
:10612C000C4608D011B14B6801334B60286808B19C
:10613C00FEF72CF82C6038BDA0F13003DAB2092A36
:10614C0001D818467047A0F16103052B01D85738C8
:10615C007047A0F14103052B94BF37384FF0FF3047
:10616C007047000010B500230370044B04461868F8
:10617C00FFF7E0FB01232370204610BDC0E603208F
:10618C0010B5037804461BB1024B1868FFF7DAFB15
:10619C00204610BDC0E6032082B00346086849685B
:1061AC006A4603C26A4603CA18601846596002B0B0
:1061BC00704708B582798B799A4206D1062203F092
:1061CC0041FDB0FA80F0400908BD0020FCE74FF01B
:1061DC00FF33036083800020704708B5024600211E
:1061EC0001604160FFF7F3FF9171104608BD00009C
:1061FC0010B501230361054B024603F1100153F85E
:10620C00044B42F8044B8B42F9D110BDAAA90B00E8
:10621C000B7C13F0FD0330B50DD103610C4B024622
:10622C0003F1100453F8045B42F8045BA342F9D168
:10623C000B88838130BD0123036101F110020346F9
:10624C0051F8044B43F8044B9142F9D1F2E700BFEB
:10625C00AAA90B0010B50B460446B1B1012A01F1F5
:10626C0010020AD1014653F8040B41F8040B934277
:10627C00F9D101232361204610BD411E12F8010DF6
:10628C0001F8010F9A42F9D1F3E7102203F012FD45
:10629C00F1E738B504460D46FFF7AAFF002323614A
:1062AC00A581204638BD08B502690B699A4206D112
:1062BC00102203F0C7FCB0FA80F0400908BD0020A2
:1062CC00FCE7000001232DE9F3410361344B0C463C
:1062DC000646024603F1100153F8040B42F8040B76
:1062EC008B42F9D144B32421204603F046FD042807
:1062FC004FF0000523D1ADF8045001AFA51C0634B6
:10630C0015F8020CFFF718FFB0F1000812DB15F8B6
:10631C00010CFFF711FF00280CDB023540EA0810D6
:10632C00A54207F8010BEBD19DF8053033739DF8AE
:10633C00043073730023336102B0BDE8F0814FF079
:10634C0010082421204603F018FDA84207D8424625
:10635C000021304602B0BDE8F04103F0ABBCB8F10F
:10636C00000FE9D0605DFFF7E7FE030615D40001CE
:10637C0008F1FF38C7B206F808702421204603F054
:10638C00FCFC0135A84208D9605DFFF7D5FE40B290
:10639C000028A4BF384306F808000135D1E700BF38
:1063AC00AAA90B0013B504460191FFF721FF204663
:1063BC000199FFF787FF204602B010BD10B500F120
:1063CC000F0301391C7801F8014F834203F1FF33AD
:1063DC00F8D110BD2DE9F0411F468EB00D460029B5
:1063EC005BD0DAB1D0F81080541EB8F1000F19D17F
:1063FC008389CDF814805BBA05AA022101A8ADF8F7
:10640C000430FFF761FE042C28BF0424224605A9A2
:10641C00284603F027FC05F80480621C10460EB0D9
:10642C00BDE8F08101A9FFF7C9FF05AA7FB11021D2
:10643C0001A8FFF749FE242C28BF2424224605A9D5
:10644C00284603F00FFC00232B55621CE6E70421C1
:10645C000DEB0100FFF738FE2D260DF11D02022178
:10646C0002A88DF81C60FFF72FFE0DF1220202210D
:10647C000DF10A008DF82160FFF726FE0DF12702C1
:10648C00022103A88DF82660FFF71EFE8DF82B6005
:10649C000BAA06210DF10E00CBE70A46BEE710B59C
:1064AC008AB004460023252208466946FFF792FF6E
:1064BC006946204602F099FB20460AB010BDF7B59C
:1064CC00054616461F460A4601ABD0E90001FFF708
:1064DC007BFD30F002040CD0841EBC4228BF3C462D
:1064EC003EB101992B68023122461944304603F023
:1064FC00B9FB204603B0F0BD37B513460C460192EC
:10650C000A4608210546FFF7DAFF40B9019B2246EF
:10651C000921284603B0BDE83040FFF7D0BF03B0D7
:10652C0030BD0000F0B50C4689B00C49054602F0B0
:10653C005CFB1F2269462046FFF7DEFF064650B182
:10654C006C46002714F8011B284602F0DFFB10B143
:10655C000137BE42F6D1284609B0F0BDCDA00B00E4
:10656C0007B5022301AA1921FFF7A9FF08B1BDF84D
:10657C00040003B05DF804FB38B54FF6FF7300253B
:10658C00044643800E22294605700571063003F03F
:10659C0091FB04F11400FFF72BFE04F12800FFF728
:1065AC0027FE044904F13C0002F01FFB6565204600
:1065BC0038BD00BFCDA00B0038B50D6804460146B0
:1065CC0005F12800FFF76FFE40B1AB89A28A9A4211
:1065DC0005D8E08A984234BF0020012038BD002045
:1065EC00FCE710B5D0E9063203EBC2029342184621
:1065FC0006D0046824888C4203F10803F6D110BD40
:10660C000020FCE7002370B5036005466820FDF709
:10661C003AFD041E04F10C0607D00123C4E9013332
:10662C00044B23603046FFF7A7FFC5E900642846FA
:10663C0070BD00BF50A90B0070B50C681434064631
:10664C0005460FCC0FC523682B60304670BD00008B
:10665C0010B503681A7886B052BB5C884FF6FF7091
:10666C00844225D0188A30B3CDE903220592134A0F
:10667C000092134ACDE901235A88ADF80C201A8AEE
:10668C00ADF80E209A89ADF8102059B11A799206FE
:10669C0044BF022205921B79DB0642BF059B43F0E7
:1066AC000103059300216846FFF732F906B010BDCF
:1066BC006FF0D100FAE76FF07700F7E703001800EE
:1066CC00A1680B00F8B50026066005462820FDF7EA
:1066DC00DAFC041E04F10C070AD00123C4E90133CF
:1066EC00054B23603846FFF783FD266284F824604F
:1066FC00C5E900742846F8BD6CA90B0070B50025DF
:10670C00056006463020FDF7BEFC044688B1012327
:10671C00C0E90133094B03604FF6FF7383810E30E0
:10672C00FFF75BFDC4E90655C4E90855C4E90A55F1
:10673C00A57574600C343460304670BD88A90B00AC
:10674C0013B5044601A8FFF70DFD23681C884FF60E
:10675C00FF73E41A01A818BF0124FFF711FD2046AE
:10676C0002B010BD37B505460C4601A8FFF7FAFC80
:10677C002A682368C2F802306368C2F8063001A8A0
:10678C00FFF7FEFC03B030BD37B50D46044601A83B
:10679C00FFF7E8FC2A68D2F802302360D2F8063002
:1067AC00636001A8FFF7ECFC204603B030BD30B5A8
:1067BC00054687B00C4601A8FFF7D4FC2A6823686D
:1067CC0012881B889A420DD1294602A8FFF7DCFFDC
:1067DC00214604A8FFF7D8FF04A902A8FFF7E9FC9B
:1067EC00044600B9002401A8FFF7CAFC204607B0F4
:1067FC0030BD000010B504466420FDF744FC68B1C0
:10680C000023C0E90033C0E90233C0E90433C0E916
:10681C0006330362C362C363C364C365206020B9DB
:10682C000A4A0B490A20FFF78DFA0020FFF71AF8E5
:10683C0020B1064A07490A20FFF784FA2168064866
:10684C000022FFF75BF8204610BD00BF71590B000A
:10685C002CA70B006AA70B0071720B0010B50A4C29
:10686C002378BFF35B8FDB070CD42046FDF71EFCAF
:10687C0040B10648FFF7BEFF2046FDF71CFC04485C
:10688C0003F0D2F9014810BDBCE60320C4E6032096
:10689C00756B0B0030B50368093B012B8DB00446BA
:1068AC000D4611D8FFF7DAFFA1880068FFF799FEB3
:1068BC00034658B92022CDE904200B4A00920B491B
:1068CC0004AA3220FFF746FA0DB030BD6A6D002ADB
:1068DC00FAD0D4E9032105F14C00CDE90312AC6DDB
:1068EC0004AA03A9A047EFE7ACA70B0043A70B0032
:1068FC0008B50020FEF7B6FF00EAE07008BD000006
:10690C0070B5044618300E461546FFF7A9FB04F186
:10691C002800FFF7B0FBC4E90365002221460348B9
:10692C00FEF7A8FF0028A8BF606970BDE9810B00C5
:10693C0010B504464069FFF7B1FAA068FFF7AEFA4C
:10694C00204610BD002247F67F71C0E90022C0E945
:10695C000222C0E90422C0E90E22C0E91022C0E9DB
:10696C001222C0E91422C0E91622C0E91822C0E99B
:10697C001B2202620263A0F8681070470368D86992
:10698C000028D4BF00200120704770B5D0E9005317
:10699C00044605EB0316AE4204D0284602F0DAF8A2
:1069AC001035F8E72068FFF779FA204670BD10B56E
:1069BC0004460068FFF772FA204610BD70B5044615
:1069CC00C06DFFF76BFA206DFFF768FA04F138051C
:1069DC0004F14400FFF7EBFF2846FFF7D6FF04F164
:1069EC002800FEF735FF04F11800FEF731FFD4E95B
:1069FC000053242606FB0356AE4204D02846FFF76C
:106A0C0097FF2435F8E72068FFF748FA204670BD59
:106A1C0030B515469FB00C4679B172B101A8FFF79D
:106A2C0091FF21462A4601A8FFF76AFF044601A8F8
:106A3C00FFF7C4FF20461FB030BD014CFAE700BF82
:106A4C00F2FEFFFF38B5141E4368054602DB6218E0
:106A5C009A4200DD5C1A2A68501801191A44521A1D
:106A6C0003F00EF96A68121B6A6038BD38B5002352
:106A7C000446836008200D46FDF705FB18B12B6812
:106A8C0003606B684360034BE360034B2060A360BF
:106A9C00204638BD15600B002D600B000B680360A1
:106AAC0013B15A6801325A60704710B551F8043B63
:106ABC00044640F8043BFFF7F1FF23680BB9FFF7DE
:106ACC0099FA204610BD10B551F8043B044640F825
:106ADC00043BFFF7E3FF204610BD10B551F8043B13
:106AEC00044640F8043BFFF7D9FF204610BD10B513
:106AFC000446006808B1FDF749FB204610BD10B5EF
:106B0C0004460430FFF7F3FF204610BD70B5D0E902
:106B1C000053044605EBC306AE4204D0281DFFF714
:106B2C00E6FF0835F8E72068FFF7B8F9204670BD96
:106B3C0070B5D0E90053044605EBC306AE4204D051
:106B4C00281DFFF7D4FF0835F8E72068FFF7A6F9F2
:106B5C00204670BD10B504462430FFF7E9FF04F160
:106B6C001800FFF7D3FF10BD70B5174B1C6854B35A
:106B7C0004F15400FEF76CFE04F14400FEF768FECD
:106B8C0004F13400FEF764FE04F12400FEF760FE0D
:106B9C00D4E9065305EBC306AE4204D0281DFFF71B
:106BAC00A6FF0835F8E7A069FFF778F904F10C00A7
:106BBC00FFF7BEFF2046FFF7A9FF20466421BDE882
:106BCC007040FDF764BA70BDC4E60320826810B54E
:106BDC000AB902F013FFBDE81040C36818472DE94D
:106BEC00F0470023C0E900338360D1F80480984556
:106BFC0005460F464ADD4FEA0810FFF747F90646EF
:106C0C00002843D0D5E90041A04204EB011A16D963
:106C1C00504515D2AAF1100AA4F11009AAEB0404EC
:106C2C000444D1451DD01CB15146204602F00EF84B
:106C3C00504601F08FFFAAF1100A103CF1E710D07A
:106C4C00B146A2450DD0B9F1000F03D021464846FC
:106C5C0001F0FCFF204601F07DFF103409F1100912
:106C6C00EFE72868FFF71AF9C5F808802E60D7E916
:106C7C00004304EB0318A04506D02146304601F032
:106C8C00FFFF10341036F6E77B686B602846BDE8D2
:106C9C00F08730B58DB00C4600F1380101A8FFF734
:106CAC009EFF029B002B2FDD04F1140104A8FFF7BB
:106CBC0039FC04F1080108A8FFF734FC0A9A069B7A
:106CCC0013431FD0DDE9014504EB0515AC4219D087
:106CDC0004A9204602F03CF860B1012408A801F098
:106CEC0039FF04A801F036FF01A8FFF74EFE20463D
:106CFC000DB030BD204608A902F02AF81034002847
:106D0C00E4D0EAE70024E9E70124EDE7F8B5002335
:106D1C00C0E9003383604F689F4205460E463EDD56
:106D2C00F800FFF7B3F80446C8B3D5E90003844272
:106D3C0000EBC30310D99C420FD2083B1A1AA0F1E6
:106D4C00080C22449C4518D01AB119681160596876
:106D5C005160083B083AF5E70FD0014622468B42BA
:106D6C000BD03AB1D1F800C0C2F800C0D1F804C0C1
:106D7C00C2F804C008310832F1E7FFF78FF82C6035
:106D8C00AF60D6E9003103EBC100984206D01A6817
:106D9C0022605A68626008330834F6E76960284656
:106DAC00F8BD70B504460020C4E90000A0604E6830
:106DBC0086420D4612DD7100FFF778F870B1206045
:106DCC00A660D5E9003203EB42029A4204D033F8B4
:106DDC00021B20F8021BF8E76B686360204670BD4D
:106DEC0010B50379044623B90368186808B1FFF796
:106DFC0055F8204610BD10B50379044623B9036835
:106E0C00186808B1FFF74AF8204610BD2DE9F04389
:106E1C00D0F86C808FB00F46B8F1000F72D0056FB0
:106E2C00002D6FD001F114091F230022FF214846C9
:106E3C00FFF745FB0837FF23044600221946384666
:106E4C00FFF73DFBAC42064606D0AE4230D00024E4
:106E5C0020460FB0BDE8F0832046FFF717F803ABD0
:106E6C0004930023044603908DF8143070B920234A
:106E7C00CDE90630244B00932449034606AA322060
:106E8C00FEF768FF04A8FFF7ABFFE1E70246FF211E
:106E9C002B464846FFF713FB03982A46414602F05F
:106EAC00D1FE18B104A8FFF79BFFCEE70124E9E758
:106EBC002846FEF7EBFF002403AB06460390049331
:106ECC008DF8144078B92023CDE906300E4B009391
:106EDC000E49034606AA3220FEF73CFF344604A8AE
:106EEC00FFF789FFB4E70246FF212B463846FFF730
:106EFC00E6FA03982A46414602F0A4FE0028EED199
:106F0C000124ECE70124A3E7C4A70B0043A70B0063
:106F1C0038B50D1E0446006803DDFEF7C7FF18B92F
:106F2C0038BDFEF7BBFF00202060A5600120F7E70D
:106F3C0008B583688B4202DAFFF7EAFF08BD01202F
:106F4C00FCE738B50023C0E9003383600D4649687F
:106F5C009942044610DDFFF7DBFF68B1D5E900313B
:106F6C0022681944994205D00AB11878107001337F
:106F7C000132F7E76B686360204638BD38B50B68A3
:106F8C0003604B68436004460D4608300831FFF738
:106F9C00D8FF05F1140104F11400FFF7D2FF95F8A6
:106FAC00203084F82030204638BD1FB5044601A897
:106FBC00FFF7C7FF019B029A206823606368626039
:106FCC00039A0293A368A26001900393FEF766FFF5
:106FDC0004B010BD2DE9F0410F4641681D4619441F
:106FEC00836899420446904612DC266862683E44E7
:106FFC00D21B3146701902F043FE2A4641463046F8
:10700C0002F030FE63682B4463600120BDE8F08120
:10701C00FFF77EFF0028E8D1F8E713460A46002167
:10702C0010B50446416002B10BB9002010BDFF2B16
:10703C0028BFFF23FFF7CEFF0028F7D06068F5E7E5
:10704C00F8B50D46D0E901139942044616460BDA01
:10705C00276862687919521B481C02F011FE7E5594
:10706C00636801336360F8BD0131FFF751FF0028FD
:10707C00EED1F8E70A464168FFF7E2BF2DE9F74386
:10708C0004461D460F4601AB90460A46D0E9000166
:10709C009DF82890FEF798FFAE1C63680246B9F184
:1070AC00000F26D128B333441B1AFF2B09D80199A2
:1070BC002046FFF7C7FC616820463144FFF738FFD4
:1070CC0018B9606803B0BDE8F0836A1C0199D2B2AC
:1070DC002046FFF7B5FF01993A4601312046FFF7EC
:1070EC00AFFF01992B46424602312046FFF772FF53
:1070FC00E7E7F118FF29E4D82046FFF719FF00282D
:10710C00DFD0691CC9B22046FFF7B4FF39462046D0
:10711C00FFF7B0FF61682B464246E6E730B49DF8B6
:10712C0008501AB1029530BCFFF7A8BF406830BCBC
:10713C0070471FB50023C0E900338360062200931B
:10714C0001238DF80F2019460DF10F020446FFF7AD
:10715C00E5FF204604B010BD8842F8B504460D4644
:10716C00164614D9904213D2A2F10806751AA1F151
:10717C0008072C44B74218D01CB131462046FFF703
:10718C00ACFC301DFFF7B3FC083E083CF2E70CD01A
:10719C00B5420AD01CB129462046FFF79EFC281D9B
:1071AC00FFF7A5FC08350834F2E7F8BDF7B504463F
:1071BC0046686846FFF791FCD4E901739F4212DBE5
:1071CC000137002F29DDF800FEF760FE0546F0B10F
:1071DC00D4E9001201EBC202FFF7BEFF2068FEF7F4
:1071EC005DFE2560A7602368626803EBC60603EBAF
:1071FC00C202314606F10800FFF7AEFF1EB1694628
:10720C003046FFF76AFC636801336360012501A80F
:10721C00FFF76DFC284603B0F0BD0025DEE7F8B59E
:10722C00D0E9004305460F4604EBC306A64205D041
:10723C0039462046FFF7BBFA08B114B9F8BD08343B
:10724C00F4E7201DFFF753FCD5E9003204F10801E7
:10725C0003EBC2022046FFF77FFF6B68013B6B60BC
:10726C00ECE700002DE9F04105468EB003A80C4672
:10727C00FEF778FF2E68F31E0D2B3CD8DFE813F0D9
:10728C000E0053003B00D1003B003B003B003B0099
:10729C003B009B009B009B009B009B0004A8FFF7FE
:1072AC002DFA049BAA891A80696804980831023067
:1072BC00FEF772FF04A906A8FFF70FFC06A904F15C
:1072CC001800FFF773FF054607A8FFF710FC2023F3
:1072DC000693B5B95D4B5E49009332202B4606AA46
:1072EC000795FEF737FD049B29461888FEF7D4FA5C
:1072FC0005A8FFF7FCFB03A8FEF742FF0EB0BDE8A4
:10730C00F081544A009200235149079306AA0120A8
:10731C00FEF720FDE36A002BEAD004A904F1240057
:10732C00FFF754FCE4E7A9892046FFF75AF9064613
:10733C000028E0D00568D5E906324FF6FF712980A8
:10734C0003EBC2029A4203D053F8080B4180F9E7D1
:10735C00D5E9037307EBC308B84504D0381DFFF714
:10736C00C6FB0837F8E700232B61D5E9067307EB5A
:10737C00C308B84504D0381DFFF7B9FB0837F8E748
:10738C000023EB61AB72E36B23B1314604F13400A3
:10739C00FFF71CFC00232022CDE906232E4A009285
:1073AC002B4906AA0120FEF7D5FC314604F1180042
:1073BC00FFF735FF9FE7A9892046FFF712F9002850
:1073CC0099D0E36C002B96D000230D2EADF816301F
:1073DC0001D0102E17D1002369681A4606258DF8A6
:1073EC00153004918DF814200690DDE9040109ABE9
:1073FC008DF81C60089583E80300236D06A904F141
:10740C004400984777E70F2E01BF2B7A696803F089
:10741C00010208250FBFC3F340031A4619461D4647
:10742C00DDE7A9892046FFF7DCF8014600283FF488
:10743C0062AFE36D002B3FF45EAF6B68069306AA58
:10744C00236E04F15400984755E700BFDFA70B00EB
:10745C0043A70B0005A80B0022A80B0038B50D1E86
:10746C000446006805DD14216943FEF71FFD18B9B9
:10747C0038BDFEF713FD00202060A5600120F7E762
:10748C002DE9F8430024C0E900448460884649682B
:10749C00A14207461ADDFFF7E1FFB8B1D8E9009326
:1074AC004FF0140CD7F800E00CFB039C09EB04051F
:1074BC00AC4508D01EEB04061FBF0FCD0FC62B68C2
:1074CC0033601434F2E7D8F804307B603846BDE8FA
:1074DC00F8832DE9F843D1E9008745688368E919F9
:1074EC009942044617DC1423266862685D4303FB4B
:1074FC0007F95A432E44521B314606EB090002F0A1
:10750C00BFFB4A464146304602F0ACFB63683B4445
:10751C006360BDE8F883FFF7A1FF0028E3D1F8E72B
:10752C0082B070B50C4604A981E80C00D0E90113B7
:10753C009942054617DA142303FB04F16A682C6898
:10754C005A430C44521AE018214604AE02F098FB40
:10755C000FCE0FC4336823606B6801336B60BDE8DA
:10756C00704002B070470131FFF778FF0028E2D17C
:10757C00F5E72DE9F04F002493B0931EC0E90044C9
:10758C00DBB205460F4690468460059379688C42C1
:10759C0072DA386807AB4246091B2044FEF714FD2B
:1075AC000646002868D0059B012B2FD8A0F1020BB2
:1075BC004FEA5B0B4FF000090DF13C0A079BCB45E2
:1075CC00234455D03A6803EB4903134408A8D978EF
:1075DC009B7843EA0121FEF75CFE0DF1200EBEE81C
:1075EC000F000DF1340CACE80F00DEF80030CCF8D5
:1075FC0000309AE807008DE807000DAB0CCB6968EA
:10760C002846FFF78DFF09F10109D7E7A8F106031A
:10761C00012B2DD8A0F1020B4FEA1B1B4FF00009D8
:10762C000DF13C0ACB45079B22D002333968234429
:10763C0003EB09130122194408A8FEF70BFE0DF108
:10764C00200EBEE80F000DF1340CACE80F00DEF894
:10765C000030CCF800309AE807008DE80700DDE92F
:10766C000D2369682846FFF75BFF09F10109D9E78B
:10767C00079B1C44344489E7284613B0BDE8F08FBF
:10768C0030B5002385B0C0E9003383600446022284
:10769C0001A80D46FFF76DFF01A92046FFF719FF62
:1076AC0001A8FFF784F90222294601A8FFF761FF20
:1076BC0001A92046FFF70DFF01A8FFF778F9032277
:1076CC00294601A8FFF755FF01A92046FFF701FF46
:1076DC0001A8FFF76CF90622294601A8FFF749FF1C
:1076EC0001A92046FFF7F5FE01A8FFF760F9072274
:1076FC00294601A8FFF73DFF01A92046FFF7E9FE47
:10770C0001A8FFF754F9204605B030BD2DE9F04330
:10771C0085B08846014601A89146FFF7B1FF019E4E
:10772C00029B4FF0140E0EFB036C0027B4450DD0DA
:10773C00B94506F1140609D0A6F114050FCD0EFBC0
:10774C0007840FC42B6823600137EFE701A8FFF70C
:10775C002EF9384605B0BDE8F0832DE9F04F8BB01B
:10776C000C4600F1440101A8FFF78AFE029B002B96
:10777C004ADD04F1140104A8FFF782FF04F10801AB
:10778C0007A8FFF77DFF059D089E002D01DC002E4C
:10779C0038DD019A029FDDF81080DDF81C9014236F
:1077AC0003FB072703FB058503FB06969246BA45A8
:1077BC0028D0C346AB4515D059465046FEF773FD4D
:1077CC000BF1140B04460028F4D007A8FFF7EFF8D0
:1077DC0004A8FFF7ECF801A8FFF7E9F820460BB076
:1077EC00BDE8F08FCB46B34509D059465046FEF75D
:1077FC005AFD0BF1140B04460028F4D0E5E70AF10E
:10780C00140AD4E70024E0E70124E4E713B50B469F
:10781C000246D0E900016C4684E8030093E80300BB
:10782C0082E8030094E8030083E8030002B010BD73
:10783C0038B505460C46FFF7E9FFAB68A268AA60AD
:10784C00A360EB68E268EA60E36038BD30B585B0F0
:10785C00002302938B6805460C4633B1022268461E
:10786C009847E3680393A368029329466846FFF799
:10787C00DFFF6846FDF7ECFF05B030BD38B50D46AF
:10788C0001684B6D044623B128684C314C30FFF72E
:10789C00DDFF20462B6840F8043B6968FEF73CFC92
:1078AC00204638BD2DE9F043044687B068460E46A5
:1078BC001746FEF757FC2368D3E9064304EBC308CD
:1078CC004445A14616D0214601A8FEF7B5FE39461F
:1078DC0001A8FEF7E8FC083405460028F0D049461C
:1078EC003046FFF7CBFF6846FEF74AFC284607B048
:1078FC00BDE8F0830025F6E710B504688AB04C3477
:10790C00B9B1CDE9001202A86946FFF7AFF8002320
:10791C0006A902A80893FFF78BFF214606A8FFF7DC
:10792C0087FF06A8FDF794FF02A8FDF791FF0AB0A8
:10793C0010BD0491EBE78842F8B504460D46164697
:10794C0014D9904213D2A2F10806751AA1F10807B6
:10795C002C44B74218D01CB131462046FFF7B3F87F
:10796C00301DFFF7C4F8083E083CF2E70CD0B542D6
:10797C000AD01CB129462046FFF7A5F8281DFFF7B1
:10798C00B6F808350834F2E7F8BD70B50E1E05469A
:10799C0011DDF000FEF77AFA044658B1D5E9001271
:1079AC0001EBC202FFF7C7FF2868FEF777FA2C60DD
:1079BC00AE60012070BD0024F6E72DE9F0410023F4
:1079CC00C0E9003383600D4649689942044613DDD3
:1079DC00FFF7DBFF80B1D5E90063276806EBC3082E
:1079EC00B04507D01FB131463846FFF76CF8083662
:1079FC000837F5E76B6863602046BDE8F08137B562
:107A0C000D46044601A8FEF7ADFB296820460C3153
:107A1C00FFF7D3FF01A8FEF7B3FB204603B030BD40
:107A2C0038B50B689B7A05460C4633B90846FEF709
:107A3C002DFB10B9236801229A7228462146FFF7C4
:107A4C00DEFF284638BD73B5044645686846FFF727
:107A5C003AF8D4E90113994210DA2368626803EB0F
:107A6C00C50503EBC202294605F10800FFF763FFC9
:107A7C008DB9636801336360012606E0013120464D
:107A8C00FFF783FF06460028E7D101A8FFF72FF880
:107A9C00304602B070BD69462846FFF714F8E8E797
:107AAC002DE9F04FDFF8B890DFF8B8A093B0054699
:107ABC00884600272B68BB424ED903A8FEF702FE6E
:107ACC001C266A68039C7E4332440DF1140C131D72
:107ADC00E346143218685968E646AEE803000833EA
:107AEC009342F446F6D11868CEF8000059460AA81D
:107AFC00FEF78EFB0DF1280CBCE80F000FC4DCF870
:107B0C00003023606B68039A334403A91B8B938268
:107B1C006B6833445B8BD382D8F8000000F10C0403
:107B2C000AA8FEF7D0FF20460AA9FFF78CFF0446EF
:107B3C000BA8FEF7DCFF54B92023CDE90A34CDF8AD
:107B4C00009023460AAA51463220FEF703F904A8F6
:107B5C00FEF7CDFF0137ADE713B0BDE8F08F00BFE6
:107B6C0041A80B0043A70B008842F8B504460D460C
:107B7C00164614D9904213D2A2F10806751AA1F137
:107B8C0008072C44B74218D01CB131462046FEF7EA
:107B9C008CFF301DFEF7ABFF083E083CF2E70CD023
:107BAC00B5420AD01CB129462046FEF77EFF281D9F
:107BBC00FEF79DFF08350834F2E7F8BD70B50E1ED0
:107BCC00054611DDF000FEF761F9044658B1D5E920
:107BDC00001201EBC202FFF7C7FF2868FEF75EF93F
:107BEC002C60AE60012070BD0024F6E72DE9F04159
:107BFC000023C0E9003383600D464968994204466E
:107C0C0013DDFFF7DBFF80B1D5E90063276806EBD6
:107C1C00C308B04507D01FB131463846FEF745FFC3
:107C2C0008360837F5E76B6863602046BDE8F081DD
:107C3C0037B50D46044601A8FEF794FA296820468C
:107C4C001831FFF7D3FF01A8FEF79AFA204603B0CC
:107C5C0030BD73B5044645686846FEF726FFD4E987
:107C6C000113994210DA2368626803EBC50503EB34
:107C7C00C202294605F10800FFF776FF8DB963684B
:107C8C0001336360012606E001312046FFF796FFC1
:107C9C0006460028E7D101A8FEF729FF304602B0BE
:107CAC0070BD69462846FEF700FFE8E7F0B585B0E1
:107CBC00054601A80C461746FEF754FA0023C5E901
:107CCC000033AB602368D3E9064604EBC606B44226
:107CDC0011D038682146FEF76FFC50B1214602A83E
:107CEC00FEF7E3FE02A92846FFF7B3FF03A8FEF751
:107CFC00FEFE0834EBE701A8FEF742FA284605B071
:107D0C00F0BD00002DE9F0430B689B7A91B006465C
:107D1C000F46904633B9C0E900338360304611B04A
:107D2C00BDE8F08311680D7E002D58D120232A4622
:107D3C0003A8CDE90835FEF7B2FB039B01932B4B4F
:107D4C002B49009308AA2B460120FEF703F803A841
:107D5C0000F000FF1C23ADF82230D8F800309A8ACE
:107D6C00ADF83820DB8AADF83A303B68214A1888E8
:107D7C00009508A9FDF7A4FD002830DB3B68D3E98A
:107D8C00064304EBC3090834A4F10803994522D037
:107D9C0054F8083CDB89002BF5D0102200210DEBA8
:107DAC000200039501F086FF54F8083CD9893B6822
:107DBC0003AA188800951323FDF78CFD0028E2D048
:107DCC0010AB184403A900F8345C54F8080C3C3090
:107DDC0000F061FFD7E7D8F8003001221A7642464E
:107DEC0039463046FFF762FF98E700BF66A80B00E4
:107DFC0043A70B00A97F0B00F0B50B689B7A85B0ED
:107E0C0006460D462BB901A8FFF70AFE01A8FEF79E
:107E1C007DFE2B68D3E9034704EBC707BC4209D0AE
:107E2C002246294601A8FFF76DFF01A8FEF780FE48
:107E3C000834F3E730462946FFF7FAFE304605B022
:107E4C00F0BD00002DE9F043054693B00868079299
:107E5C000F46496898460AAC414B049303C405ABE2
:107E6C004FF0000983E80300CDE90899FEF7F6FC12
:107E7C003C4B0893FEF7F2FC2968036809934A46C9
:107E8C0004A8FDF731FD0AAE044638B12B684FF655
:107E9C00FF721A80204613B0BDE8F083394628469D
:107EAC00FEF760FC03A8FEF75DF9FEF7D7FC076848
:107EBC00294618373046FEF710FE31463846FFF794
:107ECC0075F907460BA8FEF712FE4FF020091FBBF1
:107EDC003246254B254E2649009332202346CDE9C8
:107EEC000A94FDF737FF3068FDF72CFD2B688DF8F1
:107EFC000C40214618881F4CFDF7CEFC3068FDF76E
:107F0C0019FD01238DF80C302B684FF6FF721A8087
:107F1C0003A8FEF735F9BDE703A8FEF731F9164BB8
:107F2C0000931349234632460120CDE90A94FDF70C
:107F3C0011FFB8F1000FADD029463046FFF75CFFBA
:107F4C00DDE90A5305EBC307BD4205D028460121E4
:107F5C00FEF77EFB0835F7E73046FEF7E9FD99E7BB
:107F6C000300180071720B0098A80B00C0E60320E8
:107F7C0043A70B00FCFEFFFFB4A80B0013B504468F
:107F8C00CDE90032FEF7BAFB009B01990022204696
:107F9C00FFF758FF204602B010BD00002DE9F04F4E
:107FAC00202395B00026CDE90C36664B0093054690
:107FBC000F4633466449DFF89491DFF88C81DFF883
:107FCC0090A10CAA0120FDF7C5FE2B68B34240F22C
:107FDC00B58003A8FEF716FB05A8FEF773FB4FF060
:107FEC002A0B6B68039A0BFB06FB5B44D98B118144
:107FFC00198C5181598C9181988CD081D88C10829C
:10800C001B8D5382D7E9033203EBC2029A427DD017
:10801C001868C48A8C4277D3848A8C4274D8596885
:10802C00059006A8FEF778F8DDF814C0DDF80CE032
:10803C00BCE80F000EF128040FC4DCF800302360FC
:10804C002B89AEF802306B68039C5B445B7E13F0AB
:10805C00020F6ED16B685B445B7E580742BF23797D
:10806C0043F0040323716B685B445B7E190742BFCA
:10807C00237943F0080323716B685B445B7EDA065B
:10808C0042BF237943F0100323716B685B4407AA4A
:10809C005B7E9B0642BF237943F0200323716B6800
:1080AC009B440BF1040396460BF1140B18685968AA
:1080BC009446ACE8030008335B456246F6D1186879
:1080CC00CCF8000071460CA8FEF7A2F80DF1300CAC
:1080DC00BCE80F0014340FC4DCF80030236003A993
:1080EC000CA8FEF7E2FC0CA907F11800FFF7B1FD94
:1080FC0004460DA8FEF7FBFC9CB92023CDE90C34FB
:10810C00CDF800A0234607E008337FE720240023A6
:10811C00CDE90C43CDF800900CAA41463220FDF776
:10812C0019FE06A8FEF7E3FC04A8FEF7E0FC0136F6
:10813C004BE7237943F0020323718BE715B0BDE8BD
:10814C00F08F00BFD1A80B0043A70B00ECA80B00CD
:10815C001BA90B008842F8B504460D46164614D9E7
:10816C00904213D2A2F12406751AA1F124072C44D3
:10817C00B74218D01CB131462046FEF7FFFE304600
:10818C00FEF7D6FB243E243CF2E70CD0B5420AD0D5
:10819C001CB129462046FEF7F1FE2846FEF7C8FB27
:1081AC0024352434F2E7F8BDF8B50E1E054613DD70
:1081BC00242707FB06F0FDF769FE044658B1D5E904
:1081CC00001207FB0212FFF7C5FF2868FDF766FED9
:1081DC002C60AE600120F8BD0024F6E72DE9F043D9
:1081EC009DB001AD064628460C46FDF7F6FF03A8E8
:1081FC00FEF79FFF06A8FEF79CFF30697169F289B4
:10820C0013AB03C385E803003378B1688DF82430D1
:10821C0006A8FEF702FFB289716803A8FEF7FDFEFF
:10822C0094F968307F2B13AF03D09DF924209A4228
:10823C005CDB94F969307F2B03D09DF924209A42A2
:10824C0054DC04F150013846FEF760FD149B002B02
:10825C0052DD139E06EBC309B14550D0304629467A
:10826C00FDF7A7FF083680460028F5D01398FDF7D8
:10827C0015FEB8F1000F39D029462046FEF709FD4E
:10828C00A0B329462046FFF768FA064670B304F1FE
:10829C005C013846FEF785FD149B002B12DD06A809
:1082AC00FEF75EF9804603A8FEF75AF9DDE91332B2
:1082BC0003EB42029A4225D033F8021B884501D0C9
:1082CC008842F7D11398FDF7E9FD7EB12946204687
:1082DC00FEF79CFD50B1236AB3B16369139501336A
:1082EC006361636A394604F1180098472846FEF723
:1082FC001FFB1DB0BDE8F0834FF00108B6E74FF04F
:10830C000008B3E70026DDE7D4F83080B8F1000FA1
:10831C0007D06369013363612946636B04F128005C
:10832C00E3E7D4F80CC0BCF1000F25D063692269D7
:10833C00013393426361D9D8242253432A4603CA9A
:10834C00243B0CEB03064CF80300716006F10800AB
:10835C0003A9FEF72AFE06A906F11400FEF725FE76
:10836C009DF9243086F82030D4E904329A42BDD3EA
:10837C004046FDF787FAB9E795E803000DF12808A8
:10838C0088E8030003A90CA8FEF7DBFD06A90FA8DB
:10839C00FEF7D7FD9DF824308DF84830414638461D
:1083AC006668FEF7EBFDD4E90113994210DA2368F5
:1083BC006168242202FB063606F1240002FB01321E
:1083CC003146FFF7C7FE86B963680133636005E089
:1083DC0001312046FFF7E8FE0028E8D13846FEF7C9
:1083EC00A7FA4046FEF7A4FA80E739463046FEF776
:1083FC00C5FDE9E7024800230360FDF793BA00BF0F
:10840C00C0E60320002240681146FDF717BD00228C
:10841C0040681146FDF722BD40680022FDF716BDED
:10842C004068002281F00101FDF700BD0023406887
:10843C001A461946FDF7F2BC002340681A46194645
:10844C00FDF7E4BC002240681146FDF7D7BC0022C2
:10845C0040681146FDF7C2BC406800220221FDF7BE
:10846C00C5BC002340681A46FDF7B0BC024B032282
:10847C005A60024A1A607047C8E60320C4A90B0070
:10848C007047F8B5064615460C468F18BC4206D008
:10849C00336814F8011B9B6830469847F6E728466A
:1084AC00F8BD007C0022FDF7C5BA007C0021FDF769
:1084BC00C9BA007C0021FDF7CDBA007C0021FDF784
:1084CC00D1BA007C0021FDF7D5BA10B514210446B1
:1084DC00FBF7DDFD204610BD10B54FF47A73044652
:1084EC0008460021C4E90113034B23602074114694
:1084FC00FDF7D0FA204610BD00AA0B000023007C2B
:10850C001A461946FDF77EBA7FB500221423CDE931
:10851C000122ADF804300B788DF808304B680393CA
:10852C00CB680493007C0B7A059301A9FDF7BAFA8A
:10853C0007B05DF804FB1FB5003B8DF800104FF041
:10854C006401039118BF0123694601928DF808302C
:10855C00FFF7DAFF05B05DF804FB0123FFF7EBBF73
:10856C00007C0022FDF756BA007C0022FDF75ABAB7
:10857C000121FFF7F9BF704710B518210446FBF72E
:10858C0086FD204610BDF0B5037D062B8DB00E4642
:10859C0000F104074FF0000412D000F1080515F8A3
:1085AC00011D0A22304600F080F9AF42044419D074
:1085BC00002CF4D02E21304600F05EF90444EEE796
:1085CC002F236A4639460A208DF80040FDF77AFAC7
:1085DC00684601F0B7FB33680246DB6869463046F3
:1085EC009847044620460DB0F0BD000010B5054B71
:1085FC000446112240F8043B002101F05BFB2046AD
:10860C0010BD00BF28AA0B000346074A10B543F85B
:10861C00042B01F1100251F8044B43F8044B914226
:10862C00F9D10A781A7010BD28AA0B00037D042B0F
:10863C0004D14068003818BF01207047062B07D1C1
:10864C0043683BB983682BB9C3681BB90069F1E770
:10865C00002070470120704710B59DF8084044EA8F
:10866C00032343EA024242EA016104234160037599
:10867C0010BD000013B5044C04609DF8104000942C
:10868C00FFF7EAFF02B010BD28AA0B0007B5064B96
:10869C000360CB7800938B784A780978FFF7DCFF7E
:1086AC0003B05DF804FB00BF28AA0B00014B024A83
:1086BC001A607047D0E6032034AA0B0000234068F0
:1086CC001A46FDF783BB406800220221FDF78EBBE2
:1086DC00002240681146FDF781BB0022406811461C
:1086EC00FDF78CBB002340681A461946FDF78EBB7C
:1086FC00002340681A461946FDF790BB40680021DC
:10870C00FDF7B4BB40680021FDF7B8BB4068002200
:10871C0081F00101FDF78ABB40680022FDF796BB92
:10872C00002240681146FDF799BB002240681146B3
:10873C00FDF784BB2DE9F04395B014460D46074672
:10874C00FFF754FF00211C220DA8009101F0B2FA92
:10875C0040230C9320466B460CAA0021FDF7D2F95E
:10876C00044600284BD1024601216868FDF746FB00
:10877C000221804622466868FDF740FB009E814638
:10878C002146002E3BD0002939D17368022B03D02F
:10879C000A2B11D0F669F4E7B8F1000FFAD0716921
:1087AC0006A8043107ADFFF771FF0FCD3C1D0FC4B8
:1087BC002B6823704146EDE7B9F1000FEAD07469DC
:1087CC00102201A801F076FA06238DF8143001ADC1
:1087DC0004F108031834186859682A4603C2083390
:1087EC00A3421546F7D101A906A807ADFFF70CFF68
:1087FC000FCD3C1D0FC42B6823704946CAE7009867
:10880C00FDF778F9384615B0BDE8F083024B034A02
:10881C001A6000225A607047D4E6032040AA0B006D
:10882C00F8B506460D468F180024BD420CD03368AF
:10883C0015F8011B9B6830469847031E01DB1C444E
:10884C00F3E7002C08BF1C462046F8BD13B50446C0
:10885C00084659B1019101F075FA23680199DB685A
:10886C000246204602B0BDE81040184702B010BDC9
:10887C0008B5FFF7EBFF08BD03689B68184738B5D0
:10888C000D210546FFF7F8FF0A2104462846FFF79D
:10889C00F3FF204438BD38B50546FFF7D7FF044633
:1088AC002846FFF7ECFF204438BD30B58BB00023D1
:1088BC00012A8DF8243098BF0A2209AC0D46B1FB71
:1088CC00F2F101FB125303F0FF03092B94BF303379
:1088DC003733DBB2AA4204F8013DEFD92146FFF74A
:1088EC00B5FF0BB030BD2DE9F04186B000AF0546A9
:1088FC000E46381D142114463B60FDF7E7FA132889
:10890C000ED8391D2846FFF7A1FF04461EB1284694
:10891C00FFF7B5FF044420461837BD46BDE8F0818B
:10892C0000F1080323F00703E846ADEB030D2246E4
:10893C00411C3B686846FDF7C9FA69462846FFF7B3
:10894C0085FF0446C546E1E710B50446FDF7EAF994
:10895C00844208D01CB1BDE81040FDF7D3B9BDE886
:10896C001040FDF7D7B910BD70B505460E4614463C
:10897C00FDF7D8F950B144EA062444EA0540FDF766
:10898C00B9F9BDE87040E720FDF7D4B970BD00001F
:10899C00014B00229A607047DCE603200021FDF7B2
:1089AC0021B90021FDF716B910B50446084621700F
:1089BC00FDF7F0F800236360204610BD13B50446A4
:1089CC0000780191FFF7EDFF019948B920780190EB
:1089DC00FDF7D0F8019802B0BDE81040FFF7DEBFFC
:1089EC0002B010BD0078FFF7D9BF0000400830B5C9
:1089FC001860002418688842E5B206D90134082CA6
:108A0C0002D040081860F5E70725024B5B5D137038
:108A1C0030BD00BF74AA0B002DE9F04306468FB0A1
:108A2C0000780C46FFF7BDFF00281BDB35781422BD
:108A3C00002109A801F03EF90B23002209A92846C0
:108A4C00ADF82430FDF7B6F89DF82D3013B19DF834
:108A5C002C5055B10027B946B846012523795DB194
:108A6C00C3B100200FB0BDE8F083DDF830809DF875
:108A7C0034909DF83570F1E7002B35D1A368434550
:108A8C0008D18DF820908DF82170BDF82020A38995
:108A9C009A42E6D00023A1688DF80F300A9804ABF7
:108AAC000DF10F02FFF7A2FF217985B989B9A368EF
:108ABC0043450ED38DF820908DF82170BDF8202001
:108ACC00A3899A4205D1049B434502D1C9E70029E9
:108ADC00F9D100230193637B00939DF80F20237B36
:108AEC003078FDF76FF8BCE7CDE900552B462A46E8
:108AFC000121F5E708B50078FDF744F8C0B208BDD0
:108B0C0010B50446FCF736FFE060236820465B692D
:108B1C009847002808DAFCF72DFFE368C01AA36811
:108B2C009842F2D34FF0FF3010BD2DE9F0410746CB
:108B3C000C468E180D46B542A5EB040807D03846F6
:108B4C00FFF7DEFF031E02DB05F8013BF3E74046AF
:108B5C00BDE8F08110B504460068FDF79FF920468A
:108B6C0010BD10B50446006808B1FDF797F9002355
:108B7C00C4E90133236010BD38B504460D460068C6
:108B8C000131FDF793F910B1C4E90005012038BD9E
:108B9C0010B50368044623B143688B4201D301200E
:108BAC0010BD2046FFF7E8FF0028F9D0A368002B82
:108BBC00F5D122681370F2E737B50D4611460192D4
:108BCC000446FFF7E5FF019A28B92046FFF7C9FFD5
:108BDC00204603B030BDA2602946206801F042F85F
:108BEC002268A3680021D154F2E7002313B5C0E931
:108BFC00003304468360037341B10846019101F0D0
:108C0C00A1F8019902462046FFF7D6FF204602B094
:108C1C0010BD38B5054600680C4668B16A688B68AB
:108C2C009A4207D3096801F085F8A368AB6000236A
:108C3C00A36038BDFDF732F923682B6063686B6065
:108C4C00A368AB600023C4E90033F1E710B500233F
:108C5C00C0E90033044683600373FFF7DAFF204654
:108C6C0010BD884210B5044605D00B682BB18A683C
:108C7C001946FFF7A1FF204610BDFFF772FFFAE778
:108C8C0010B500230446C0E9003383600373FFF77B
:108C9C00E8FF204610BD13B5044659B108460191B2
:108CAC0001F050F8019902462046FFF785FF204657
:108CBC0002B010BDFFF755FFF9E71FB504460023BE
:108CCC00C4E90033A3602373084601A900F0BEFC7D
:108CDC0001A92046FFF7DFFF204604B010BD70B598
:108CEC0005460E4609B9002070BD6AB1846814446B
:108CFC002146FFF74DFF0028F5D02868AB683146B8
:108D0C00184401F017F8AC600120EDE707B500231B
:108D1C008DF80410012201A98DF80530FFF7DFFF53
:108D2C0003B05DF804FB02680B46096862B141B9F7
:108D3C00806860B110787047986840B109784842F3
:108D4C007047104600F0ECBF0029F5D1084670477B
:108D5C0008B582688B689A4205D1FFF7E4FFB0FA38
:108D6C0080F0400908BD0020FCE708B582683AB9DC
:108D7C0021B10878B0FA80F0400900E0012008BD6C
:108D8C00006809B90078F5E700F0CAFFF2E70000C7
:108D9C00054B02221A60054B054A9A600020C3E974
:108DAC000000FCF7DFBF00BFF8E60320ECE6032071
:108DBC000000FFFF13B503688DF80710DC6B012270
:108DCC004FF0FF330DF10701A04702B010BD10B4F6
:108DDC000368DC6B4FF0FF33A4465DF8044B60472F
:108DEC0013B5134602688DF80710D46B0DF107010B
:108DFC000122A04702B010BD10B54369B3F886201C
:108E0C00B3F884309A42044608D06369B3F88420DE
:108E1C00511CA3F884101344187910BD03681B6906
:108E2C0098470028F1D14FF0FF30F6E770474369BF
:108E3C001868C043C00F704770470000064B99423A
:108E4C0010B500F10C0405D0084600F0DBFD00283D
:108E5C0008BF0024204610BD9CA90B0010B5AC2106
:108E6C000446FBF714F9204610BDAC21FBF70FB9F3
:108E7C002DE9F0414FF0000886B01C46C0F8048084
:108E8C0005460E4617464146102202A800F012FF76
:108E9C00631C09D04FF47A73B4FBF3F203FB124456
:108EAC00CDE902285C4304946869102300930068A0
:108EBC0002AB41F2050240F6FF71FCF72BFE0028D5
:108ECC0007DAFDF713F803686B60002006B0BDE805
:108EDC00F0816869002300683A463146FCF73AFE97
:108EEC00031EEEDB1846F1E738B584690A4B0360C4
:108EFC0005467CB16368013B63605BB9236820461F
:108F0C009B689847A368013BA3601BB92368204664
:108F1C00DB689847284638BDB8AA0B0010B5044644
:108F2C00FFF7E2FF20461C21FBF7B1F8204610BDED
:108F3C0030B587B0044601AD6846FFF7A7FB0FCDEF
:108F4C0004340FC42B68237007B030BD70B54D6965
:108F5C00054B04468C3544F8043B06460FCD0FC434
:108F6C002B682370304670BD28AA0B002DE9F04306
:108F7C009846036893B00D460024DB6A06461746F4
:108F8C00984728466B46224621460094FCF7BAFDCA
:108F9C000546002863D1009B002B4BD05B69002B4E
:108FAC0048D006A8FFF722FB009B5C696378022B74
:108FBC0004D1211D06A8FFF7BBFF26E00A2B24D104
:108FCC001122294601A800F075FEA368002B38D0A9
:108FDC0004F108030DF1040C183418685968624642
:108FEC0003C20833A3429446F7D1062301A90CA867
:108FFC008DF81430FFF708FB0DF1340CBCE80F00B2
:10900C0007AC0FC4DCF80030237006A8FFF70EFB8A
:10901C0080B1336807ADD3F82090124B0C930FCD71
:10902C000DAC0FC42B6823703A4643460CA930464E
:10903C00C84705460098FCF75DFD284613B0BDE80F
:10904C00F083E368002BC3D14FF6FF70D4F8109077
:10905C00FCF740FD8145BBD104F11401AAE725467C
:10906C00E8E700BF28AA0B0038B543691A68002A44
:10907C00054610DAB3F88620B3F884309A420AD148
:10908C0003681B699847044628B92B682846DB6A95
:10909C009847204638BD0120FCE710B54369B3F86A
:1090AC008620B3F884309A42044605D06369B3F83D
:1090BC0084201344187910BD03681B699847002855
:1090CC00F4D14FF0FF30F6E7F8B543691746B3F823
:1090DC008620B3F884309A4205460E4616D069694C
:1090EC00B1F88430B1F88640E41ABC4228BF3C4643
:1090FC00043322461944304600F0B4FD6A69B2F8D4
:10910C0084302344A2F884302046F8BD03681B69E0
:10911C0098470028E3D14FF0FF34F5E7426900236C
:10912C00A2F884304269A2F8863070472DE9F041EC
:10913C001F4603680C46DB6A8AB0054616469847FC
:10914C00237DD5F81480042B0CBF02200A200622A4
:10915C000121FCF707FDC8F800006B691B68002BA8
:10916C0008DA2B682846DB6A0024984720460AB0A8
:10917C00BDE8F0812846FFF7D1FFB7B1002303A962
:10918C00F8B20393ADF81030FCF794FC0028E8D14A
:10919C00686906230093006803AB41F20B0240F6AA
:1091AC00FF71FCF7B7FC0028DBD11C22002103A8BF
:1091BC0000F080FD237D042B1DD14FF40773304646
:1091CC00ADF80C30FCF78EFCADF80E006068FCF7C7
:1091DC0081FC04906B691C22186803A9FCF7AAFC9B
:1091EC000028BED104340FCC6D698C350FC52368B3
:1091FC002B700124BAE740F61C233046ADF80C3036
:10920C00FCF770FC05AEADF80E00231D04F114073D
:10921C0018685968324603C20833BB421646F7D168
:10922C00D8E7000030B54269B2F886308BB00446FE
:10923C002BB1B2F884209A4201D1FFF76FFF61691C
:10924C000868002818DBB1F886507F2D14D804313B
:10925C000823C5F180022944FCF774FC002813DDB7
:10926C006369B3F886200AB9A3F884206369B3F85C
:10927C0086201044A3F886006369B3F88600B3F81F
:10928C008430C01A0BB030BDFCF730FE03680B2BDA
:10929C00F2D0FCF72BFE03680B2BEDD0202300251E
:1092AC00CDE90235FCF722FE03680193084B09490E
:1092BC00009302AA2B463220FCF74CFD6369186818
:1092CC00FCF730FC63694FF0FF321A60D4E700BF43
:1092DC0083AA0B007CAA0B0010B5436904461868DE
:1092EC00002801DBFCF71EFC63694FF0FF321A60AB
:1092FC006069112200218C3000F0DCFC2046BDE8B6
:10930C001040FFF70BBF10B5002304460160C0F8F6
:10931C0084308830FFF76AF9204610BD73B50023FE
:10932C004FF47A72C0E901320E4A03610260436164
:10933C000446AC200191FAF7A6FE051E05F10C06B9
:10934C0008D00123C5E90133074B01992B60304646
:10935C00FFF7D9FF2046C4E90565FFF7DFFE02B031
:10936C0070BD00BFB8AA0B009CAA0B0010B54FF043
:10937C00FF310446FFF7D2FF204610BD10B504465E
:10938C000068002801DBFCF7CDFB204610BD0C303B
:10939C00FFF7F4BF024B1A68024B1A60704700BF0C
:1093AC0078E20320FCE6032070474174704708B54F
:1093BC00007CFCF74FFC20EAE07008BD08B5007C8F
:1093CC00FCF720FC20EAE07008BD08B5007CFCF737
:1093DC0029FC40EAE07008BD08B5007CFCF71AFCDB
:1093EC0040EAE07008BD007CFCF724BC37B5457C36
:1093FC0004462DB1207C03B0BDE83040FCF7FABB2D
:10940C00007C0191FCF726FC00280199F2DC28462F
:10941C0003B030BD10B514210446FAF738FE2046CF
:10942C0010BD000010B54FF47A730446084611467F
:10943C000022C4E90123044B2360012320746374CC
:10944C00FCF718FC204610BD20AB0B00007C002361
:10945C00FCF708BC0022FFF7F9BF41747047704756
:10946C00704708B50021007CFCF72CFC40EAE0704A
:10947C0008BD08B50121007CFCF724FC40EAE07033
:10948C0008BD08B5007CFCF715FC20EAE07008BDAF
:10949C0008B5007CFCF706FC20EAE07008BD13B5AB
:1094AC000446007C0191FCF705FC0028019901DCC5
:1094BC00607C20B1207CFCF70DFC20EAE07002B04F
:1094CC0010BD007CFCF70EBC10B514210446FAF755
:1094DC00DEFD204610BD000010B54FF47A73044633
:1094EC0008460021C4E90113044B236001232074B6
:1094FC0063741146FCF7C6FB204610BD50AB0B0045
:10950C00007C0022FCF7C6BB10B5142204460021D7
:10951C0000F0D0FB204610BD10B50F4C88B003A84E
:10952C00FFF7F2FF2178BFF35B8F11F001010FD130
:10953C0020460191FAF7BAFD019948B103AA0748F0
:10954C00FFF7CAFF2046FAF7B6FD054800F06CFBA2
:10955C00024808B010BD00BF00E7032004E7032059
:10956C006B940B00002240681146FCF747BC0022AC
:10957C0040681146FCF762BC002240681146FCF7BB
:10958C006DBC40680022FCF761BC4068002281F091
:10959C000101FCF74BBC002340681A461946FCF746
:1095AC003DBC002340681A461946FCF72FBC00222C
:1095BC0040681146FCF712BC406800220221FCF7FF
:1095CC0015BC002340681A46FCF700BC024B042271
:1095DC005A60024A1A60704718E7032080AB0B00F0
:1095EC0010B5044600F0AEFB013823182046834228
:1095FC0006D90278197800F8011B03F80129F6E75F
:10960C0010BD70B50C46911E22291DD8254630B9C7
:10961C00234430229D4210D205F8012BFAE7B0FB0F
:10962C00F2F602FB1600C1B2092894BF3031573153
:10963C00C9B205F8011B3046E9E7002320462B7020
:10964C00FFF7CEFF204670BD0020FCE708B50123D4
:10965C00FFF7D7FF08BD0000014B1860704700BF33
:10966C007CE2032008B50B4B43B1FFF755FF0368B1
:10967C001B699847002801DDAFF30080064B43B10E
:10968C0000F096F903681B699847002801DDAFF3D9
:10969C00008008BD000000000000000008B5FFF7C6
:1096AC00E1FFFCF767F9014B186008BD28E70320C0
:1096BC000548064A064908B5121A00F0D3FA054BBC
:1096CC00054A1A6008BD00BF00F4032004F403200F
:1096DC0064AE0B0000F403201E1C279A07B5002370
:1096EC0000931A466FF07701FCF756FB03B05DF858
:1096FC0004FB000007B543880A2B08D0502B0BD174
:10970C00094B1B684BB103B05DF804EB1847FFF72E
:10971C00E5FF03B05DF804FB002300931A466FF0DD
:10972C007701FCF739FBF4E724E7032010B5124866
:10973C000021FCF7EBFB114B1A68114B9A42114BB1
:10974C000CBF012200221A7001D0FFF7B1FFFCF709
:10975C0001F9044600F0B6FA0B4B13B12046AFF3F7
:10976C00008000210848FCF729FBBDE810400748A1
:10977C000021FCF707BB00BF65960B0000F403202B
:10978C001E1C279A20E703200000000001970B0005
:10979C00232813B502D9002002B010BDA0F10B0391
:1097AC00022B1AD8174C2178BFF35B8F11F00101F3
:1097BC000BD120460191FAF779FC019928B1124896
:1097CC00FFF7F2F82046FAF776FC0F4B1878FCF707
:1097DC00E9F90028DFD10120DEE7012809D800F0E3
:1097EC00A7F80021007CFCF74DF980F00100C0B215
:1097FC00D2E709380128EED800F0DAF8007CFCF743
:10980C0021FAF2E7E4E20320E8E20320232838B54A
:10981C0004460D460AD8FF2908D0FFF7B9FF28B136
:10982C0029462046BDE83840FCF7B4B838BD38B5F9
:10983C0004460D46FCF7B6F8FF2810D0062804D8CD
:10984C004D2323FA00F0C30709D42046FFF7A0FFED
:10985C0028B129462046BDE83840FCF7ABB838BDE6
:10986C0010B50446FCF79EF8031FDBB2012B08D998
:10987C002046FFF78DFF20B12046BDE81040FCF7D5
:10988C00A1B8002010BD0D2810B504469CBF0E34A5
:10989C00A4B22046FFF77CFF50B103212046FCF711
:1098AC0071F8032804D12046BDE81040FCF79AB8A3
:1098BC00002010BD38B504460D46FFF769FFF0B126
:1098CC0004212046FCF75EF8042805D1A9B22046F5
:1098DC00BDE83840FCF77EB802212046FCF752F870
:1098EC0002280CD12046FCF75DF8012801D0042891
:1098FC0005D129462046BDE83840FCF77BB838BD79
:10990C007047000038B52025142304460360856099
:10991C0005610649284600F06FF804496060284646
:10992C0000F06AF8E060204638BD00BFB4AB0B0015
:10993C0030B50E4D2978BFF35B8F11F0010487B061
:10994C0011D12846FAF7B2FB68B101A8FFF7DAFF8C
:10995C0001AA21460648FEF7BFFD2846FAF7ABFBE5
:10996C00044800F061F9024807B030BD2CE7032031
:10997C0030E703200D990B007047000038B5044602
:10998C0014252A46002100F095F925804025074929
:10999C0025812846258200F02FF80449606028466E
:1099AC0000F02AF8E060204638BD00BFB4AB0B00D5
:1099BC0030B50E4D2978BFF35B8F11F0010487B0E1
:1099CC0011D12846FAF772FB68B101A8FFF7D6FF50
:1099DC0001AA21460648FFF725FD2846FAF76BFB3E
:1099EC00044800F021F9024807B030BD44E70320D9
:1099FC0048E7032085990B00FAF747BB08B5FCF73D
:109A0C006DFA0000014900F0F9B800BFD0AB0B00B3
:109A1C007FB500241023CDE90234036815469E69F6
:109A2C0012686B46CDE90044B0479DF8043003F052
:109A3C000603062B03BF009B2B600120204604B0BD
:109A4C0070BD0098904214BF0120062070470000A2
:109A5C0010B5034B0360044600F0CDF8204610BD52
:109A6C0010AC0B0010B50446FFF7F2FF204608219E
:109A7C00FAF70DFB204610BD2DE9F0411F46DDE93C
:109A8C000834DDF8188098450646154607D1079925
:109A9C0000F0B4F818B165710020BDE8F0813946CA
:109AAC00304600F0ABF80028F6D00123C4F8008053
:109ABC002571A371F0E738B515461C4600F09EF8E9
:109ACC0020B10823E36006232560237138BD73B5EC
